{
    "_format": "hh-sol-artifact-1",
    "contractName": "Marketplace",
    "sourceName": "contracts/Marketplace.sol",
    "abi": [
        {
            "inputs": [
                {
                    "internalType": "address",
                    "name": "_tokenContract",
                    "type": "address"
                }
            ],
            "stateMutability": "nonpayable",
            "type": "constructor"
        },
        {
            "anonymous": false,
            "inputs": [
                {
                    "indexed": false,
                    "internalType": "uint16",
                    "name": "tokenId",
                    "type": "uint16"
                },
                {
                    "indexed": false,
                    "internalType": "uint256",
                    "name": "price",
                    "type": "uint256"
                }
            ],
            "name": "TokenListed",
            "type": "event"
        },
        {
            "anonymous": false,
            "inputs": [
                {
                    "indexed": false,
                    "internalType": "uint16",
                    "name": "tokenId",
                    "type": "uint16"
                }
            ],
            "name": "TokenUnlisted",
            "type": "event"
        },
        {
            "inputs": [
                {
                    "internalType": "uint16",
                    "name": "tokenId",
                    "type": "uint16"
                },
                {
                    "internalType": "address",
                    "name": "buyer",
                    "type": "address"
                }
            ],
            "name": "buyToken",
            "outputs": [],
            "stateMutability": "payable",
            "type": "function"
        },
        {
            "inputs": [
                {
                    "internalType": "uint16",
                    "name": "tokenId",
                    "type": "uint16"
                },
                {
                    "internalType": "uint256",
                    "name": "price",
                    "type": "uint256"
                }
            ],
            "name": "listTokenInMarketplace",
            "outputs": [],
            "stateMutability": "payable",
            "type": "function"
        },
        {
            "inputs": [
                {
                    "internalType": "uint16",
                    "name": "",
                    "type": "uint16"
                }
            ],
            "name": "priceByTokenId",
            "outputs": [
                {
                    "internalType": "uint256",
                    "name": "",
                    "type": "uint256"
                }
            ],
            "stateMutability": "view",
            "type": "function"
        },
        {
            "inputs": [
                {
                    "internalType": "uint16",
                    "name": "tokenId",
                    "type": "uint16"
                }
            ],
            "name": "unlist",
            "outputs": [],
            "stateMutability": "nonpayable",
            "type": "function"
        }
    ],
    "bytecode": "0x60806040526608e1bc9bf040006000553480156200001c57600080fd5b506040516200144d3803806200144d833981810160405281019062000042919062000157565b80600260006101000a81548173ffffffffffffffffffffffffffffffffffffffff021916908373ffffffffffffffffffffffffffffffffffffffff160217905550600260009054906101000a900473ffffffffffffffffffffffffffffffffffffffff16600360006101000a81548173ffffffffffffffffffffffffffffffffffffffff021916908373ffffffffffffffffffffffffffffffffffffffff1602179055505062000189565b600080fd5b600073ffffffffffffffffffffffffffffffffffffffff82169050919050565b60006200011f82620000f2565b9050919050565b620001318162000112565b81146200013d57600080fd5b50565b600081519050620001518162000126565b92915050565b60006020828403121562000170576200016f620000ed565b5b6000620001808482850162000140565b91505092915050565b6112b480620001996000396000f3fe60806040526004361061003f5760003560e01c80631aafb9641461004457806329ffed2c14610060578063a35d521a1461007c578063b973b758146100a5575b600080fd5b61005e60048036038101906100599190610b3c565b6100e2565b005b61007a60048036038101906100759190610bb2565b610324565b005b34801561008857600080fd5b506100a3600480360381019061009e9190610bf2565b610699565b005b3480156100b157600080fd5b506100cc60048036038101906100c79190610bf2565b6107b0565b6040516100d99190610c2e565b60405180910390f35b6000600160008461ffff1661ffff1681526020019081526020016000205411610140576040517f08c379a000000000000000000000000000000000000000000000000000000000815260040161013790610ccc565b60405180910390fd5b600160008361ffff1661ffff1681526020019081526020016000205434101561019e576040517f08c379a000000000000000000000000000000000000000000000000000000000815260040161019590610d5e565b60405180910390fd5b6000600360009054906101000a900473ffffffffffffffffffffffffffffffffffffffff1673ffffffffffffffffffffffffffffffffffffffff16636352211e846040518263ffffffff1660e01b81526004016101fb9190610db9565b602060405180830381865afa158015610218573d6000803e3d6000fd5b505050506040513d601f19601f8201168201806040525081019061023c9190610de9565b9050600360009054906101000a900473ffffffffffffffffffffffffffffffffffffffff1673ffffffffffffffffffffffffffffffffffffffff166342842e0e8284866040518463ffffffff1660e01b815260040161029d93929190610e25565b600060405180830381600087803b1580156102b757600080fd5b505af11580156102cb573d6000803e3d6000fd5b505050508073ffffffffffffffffffffffffffffffffffffffff166108fc349081150290604051600060405180830381858888f19350505050158015610315573d6000803e3d6000fd5b5061031f836107c8565b505050565b81600360009054906101000a900473ffffffffffffffffffffffffffffffffffffffff1673ffffffffffffffffffffffffffffffffffffffff16636352211e826040518263ffffffff1660e01b81526004016103809190610db9565b602060405180830381865afa15801561039d573d6000803e3d6000fd5b505050506040513d601f19601f820116820180604052508101906103c19190610de9565b73ffffffffffffffffffffffffffffffffffffffff163373ffffffffffffffffffffffffffffffffffffffff161461042e576040517f08c379a000000000000000000000000000000000000000000000000000000000815260040161042590610ece565b60405180910390fd5b60008211610471576040517f08c379a000000000000000000000000000000000000000000000000000000000815260040161046890610f60565b60405180910390fd5b600054341015610482600054610846565b6040516020016104929190611017565b604051602081830303815290604052906104e2576040517f08c379a00000000000000000000000000000000000000000000000000000000081526004016104d99190611087565b60405180910390fd5b50600015156104f084610914565b151514610532576040517f08c379a00000000000000000000000000000000000000000000000000000000081526004016105299061111b565b60405180910390fd5b600360009054906101000a900473ffffffffffffffffffffffffffffffffffffffff1673ffffffffffffffffffffffffffffffffffffffff1663081812fc846040518263ffffffff1660e01b815260040161058d9190610db9565b602060405180830381865afa1580156105aa573d6000803e3d6000fd5b505050506040513d601f19601f820116820180604052508101906105ce9190610de9565b73ffffffffffffffffffffffffffffffffffffffff163073ffffffffffffffffffffffffffffffffffffffff161461063b576040517f08c379a0000000000000000000000000000000000000000000000000000000008152600401610632906111ad565b60405180910390fd5b81600160008561ffff1661ffff168152602001908152602001600020819055507f7b608aecd17bce05060aaf16053c328c75e652babb4ea9f3de6f3757730fa43f838360405161068c9291906111dc565b60405180910390a1505050565b80600360009054906101000a900473ffffffffffffffffffffffffffffffffffffffff1673ffffffffffffffffffffffffffffffffffffffff16636352211e826040518263ffffffff1660e01b81526004016106f59190610db9565b602060405180830381865afa158015610712573d6000803e3d6000fd5b505050506040513d601f19601f820116820180604052508101906107369190610de9565b73ffffffffffffffffffffffffffffffffffffffff163373ffffffffffffffffffffffffffffffffffffffff16146107a3576040517f08c379a000000000000000000000000000000000000000000000000000000000815260040161079a90610ece565b60405180910390fd5b6107ac826107c8565b5050565b60016020528060005260406000206000915090505481565b6000600160008361ffff1661ffff16815260200190815260200160002054111561084357600160008261ffff1661ffff168152602001908152602001600020600090557f1ba7cd94d92815a790c2954f7359c465ac9c02746dd67915ee22b131b49f49c78160405161083a9190611205565b60405180910390a15b50565b6060600060016108558461094c565b01905060008167ffffffffffffffff81111561087457610873611220565b5b6040519080825280601f01601f1916602001820160405280156108a65781602001600182028036833780820191505090505b509050600082602001820190505b600115610909578080600190039150507f3031323334353637383961626364656600000000000000000000000000000000600a86061a8153600a85816108fd576108fc61124f565b5b049450600085036108b4575b819350505050919050565b600080600160008461ffff1661ffff1681526020019081526020016000205411156109425760019050610947565b600090505b919050565b600080600090507a184f03e93ff9f4daa797ed6e38ed64bf6a1f01000000000000000083106109aa577a184f03e93ff9f4daa797ed6e38ed64bf6a1f01000000000000000083816109a05761099f61124f565b5b0492506040810190505b6d04ee2d6d415b85acef810000000083106109e7576d04ee2d6d415b85acef810000000083816109dd576109dc61124f565b5b0492506020810190505b662386f26fc100008310610a1657662386f26fc100008381610a0c57610a0b61124f565b5b0492506010810190505b6305f5e1008310610a3f576305f5e1008381610a3557610a3461124f565b5b0492506008810190505b6127108310610a64576127108381610a5a57610a5961124f565b5b0492506004810190505b60648310610a875760648381610a7d57610a7c61124f565b5b0492506002810190505b600a8310610a96576001810190505b80915050919050565b600080fd5b600061ffff82169050919050565b610abb81610aa4565b8114610ac657600080fd5b50565b600081359050610ad881610ab2565b92915050565b600073ffffffffffffffffffffffffffffffffffffffff82169050919050565b6000610b0982610ade565b9050919050565b610b1981610afe565b8114610b2457600080fd5b50565b600081359050610b3681610b10565b92915050565b60008060408385031215610b5357610b52610a9f565b5b6000610b6185828601610ac9565b9250506020610b7285828601610b27565b9150509250929050565b6000819050919050565b610b8f81610b7c565b8114610b9a57600080fd5b50565b600081359050610bac81610b86565b92915050565b60008060408385031215610bc957610bc8610a9f565b5b6000610bd785828601610ac9565b9250506020610be885828601610b9d565b9150509250929050565b600060208284031215610c0857610c07610a9f565b5b6000610c1684828501610ac9565b91505092915050565b610c2881610b7c565b82525050565b6000602082019050610c436000830184610c1f565b92915050565b600082825260208201905092915050565b7f54686520746f6b656e20796f752074727920746f20627579206973206e6f742060008201527f6c69737465640000000000000000000000000000000000000000000000000000602082015250565b6000610cb6602683610c49565b9150610cc182610c5a565b604082019050919050565b60006020820190508181036000830152610ce581610ca9565b9050919050565b7f54686520616d6f756e742073656e74206973206c6f776572207468616e20746860008201527f6520746f6b656e20707269636500000000000000000000000000000000000000602082015250565b6000610d48602d83610c49565b9150610d5382610cec565b604082019050919050565b60006020820190508181036000830152610d7781610d3b565b9050919050565b6000819050919050565b6000610da3610d9e610d9984610aa4565b610d7e565b610b7c565b9050919050565b610db381610d88565b82525050565b6000602082019050610dce6000830184610daa565b92915050565b600081519050610de381610b10565b92915050565b600060208284031215610dff57610dfe610a9f565b5b6000610e0d84828501610dd4565b91505092915050565b610e1f81610afe565b82525050565b6000606082019050610e3a6000830186610e16565b610e476020830185610e16565b610e546040830184610daa565b949350505050565b7f4f6e6c7920746865206f776e65722063616e206c6973742074686520746f6b6560008201527f6e206f6e20746865206d61726b65740000000000000000000000000000000000602082015250565b6000610eb8602f83610c49565b9150610ec382610e5c565b604082019050919050565b60006020820190508181036000830152610ee781610eab565b9050919050565b7f53656c6c696e67207072696365206d757374206265206174206c65617374203160008201527f2077656900000000000000000000000000000000000000000000000000000000602082015250565b6000610f4a602483610c49565b9150610f5582610eee565b604082019050919050565b60006020820190508181036000830152610f7981610f3d565b9050919050565b7f57726f6e67206c697374696e672070726963652c206d75737420626520000000815250565b600081519050919050565b600081905092915050565b60005b83811015610fda578082015181840152602081019050610fbf565b60008484015250505050565b6000610ff182610fa6565b610ffb8185610fb1565b935061100b818560208601610fbc565b80840191505092915050565b600061102282610f80565b601d820191506110328284610fe6565b915081905092915050565b6000601f19601f8301169050919050565b600061105982610fa6565b6110638185610c49565b9350611073818560208601610fbc565b61107c8161103d565b840191505092915050565b600060208201905081810360008301526110a1818461104e565b905092915050565b7f5468697320746f6b656e20697320616c7265616479206c697374656420696e2060008201527f746865206d61726b6574706c6163650000000000000000000000000000000000602082015250565b6000611105602f83610c49565b9150611110826110a9565b604082019050919050565b60006020820190508181036000830152611134816110f8565b9050919050565b7f546865206f776e6572206d75737420617070726f766520746865206d61726b6560008201527f74706c6163650000000000000000000000000000000000000000000000000000602082015250565b6000611197602683610c49565b91506111a28261113b565b604082019050919050565b600060208201905081810360008301526111c68161118a565b9050919050565b6111d681610aa4565b82525050565b60006040820190506111f160008301856111cd565b6111fe6020830184610c1f565b9392505050565b600060208201905061121a60008301846111cd565b92915050565b7f4e487b7100000000000000000000000000000000000000000000000000000000600052604160045260246000fd5b7f4e487b7100000000000000000000000000000000000000000000000000000000600052601260045260246000fdfea264697066735822122007c25e2f8e02c53a7fc9a7a5262def6f95505c5d064daa9523171c70c01f59e364736f6c63430008110033",
    "linkReferences": {},
    "deployedLinkReferences": {}
}